:02000004000EEC
:04000000004E212E5F
:200008000000000000003FE0000000000000BFE00000FEE02E423FE60000FEE02E42BFE6B4
:200018003C76357939EF3DEA3C76357939EFBDEA2D18544421FB4019000000000000000098
:200028000000000000000000000000000000000000000000000000000000000000000000B8
:20003800000000000000000000000000000000000A64000E0A64000E0A64000E0A64000EB8
:200048000A64000E0A64000E0A64000E0A64000E0A64000E0A64000E0A64000E0A64000EB8
:200058000A64000E02A8000E02B2000E02BC000E02C6000E02D0000E02DA000E02E4000E32
:2000680002EE000E02F8000E0302000E030C000E0316000E0320000E032A000E0334000E6A
:20007800033E000E0348000E0352000E035C000E0366000E0370000E037A000E0384000ED8
:20008800038E000E0A64000E0398000E03A2000E03AC000E03B6000E03C0000E03CA000EB1
:2000980003D4000E03DE000E03E8000E03F2000E03FC000E0406000E0410000E041A000E05
:2000A8000424000E042E000E0438000E0442000E044C000E0456000E0460000E046A000E70
:2000B8000474000E047E000E0488000E0A64000E0492000E049C000E04A6000E04B0000E30
:2000C80004BA000E04C4000E04CE000E04D8000E04E2000E04EC000E04F6000E0500000E9F
:2000D800050A000E0514000E051E000E0528000E0532000E053C000E0546000E0550000E08
:2000E800055A000E0564000E056E000E0578000E0582000E058C000E0596000E05A0000E78
:2000F80005AA000E05B4000E05BE000E05C8000E05D2000E05DC000E05E6000E05F0000EE8
:2001080005FA000E0604000E060E000E0618000E0622000E062C000E0636000E0640000E50
:20011800064A000E0654000E065E000E0668000E0672000E067C000E0686000E0690000EBF
:20012800069A000E06A4000E06AE000E06B8000E06C2000E06CC000E06D6000E06E0000E2F
:2001380006EA000E0A64000E06F4000E06FE000E0708000E0712000E071C000E0726000E63
:200148000730000E073A000E0744000E074E000E0758000E0762000E076C000E0776000E57
:200158000780000E078A000E0794000E079E000E07A8000E07B2000E07BC000E07C6000EC7
:2001680007D0000E07DA000E07E4000E07EE000E07F8000E0802000E080C000E0816000E34
:200178000820000E082A000E0834000E083E000E0848000E0852000E085C000E0866000E9F
:200188000870000E087A000E0884000E088E000E0898000E08A2000E08AC000E08B6000E0F
:2001980008C0000E08CA000E08D4000E08DE000E08E8000E08F2000E08FC000E0906000E7E
:2001A8000910000E091A000E0924000E092E000E0A64000E0A64000E0938000E0942000EBF
:2001B800094C000E0956000E0A64000E0A64000E0960000E096A000E0974000E097E000E47
:2001C8000988000E0992000E099C000E0A64000E09A6000E09B0000E09BA000E09C4000E70
:2001D8000A64000E0A64000E0A64000E09CE000E09D8000E09E2000E09EC000E09F6000EB6
:2001E8000A00000E0A0A000E0A14000E0A1E000E0A64000E0A28000E0A32000E0A64000ED9
:2001F8000A3C000E0A46000E0A50000E0A5A000E0000000000003FF039EFFEFA2E424086D6
:200208003051D52D4910C08782FE652B15473FF7553E555555553FC5BD9316BEC16CBF66B0
:20021800DE2CAF25566A3F116BF1C5D2BD41BEBBA4D072BE37693E66759C8800E43C7E3718
:20022800000000000000017039EFFEFA2E4240863051D52D4910C087759C8800E43C7E375E
:200238000000000000003FF082FE652B15473FF7A4D072BE37693E666BF1C5D2BD41BEBB83
:20024800DE2CAF25566A3F11BD9316BEC16CBF66553E555555553FC5000000000000400007
:200258000000000000007FE00000000000000170CE000005CE100005CE180005CE20000522
:20026800010D0084010E0085010F0086011000870000000000000000000000000000000022
:20027800A0000003B000000300020000A0000003B0000003CE000005CE180005CE10000517
:20028800CE200005010D0084010E0085010F0086011000870000000000000000000000000F
:1802980000000000B0000003A000000300020000B0000003A0000003A0
:2002A800761BFFF0E20000BDE63006002942561676256F00761BFFF0E20000BDE6300600DF
:2002B8002942561676256F00761BFFF0E20000BDE63006002942561676256F00761BFFF0A9
:2002C800E20000BDE63006002942561676256F00761BFFF0E20000BDE63006002942561668
:2002D80076256F00761BFFF0E20000BDE63006002942561676256F00761BFFF0E20000BDC1
:2002E800E63006002942561676256F00761BFFF0E20000BDE63006002942561676256F00DD
:2002F800761BFFF0E20000BDE63006002942561676256F00761BFFF0E20000BDE63006008F
:200308002942561676256F00761BFFF0E20000BDE63006002942561676256F00761BFFF058
:20031800E20000BDE63006002942561676256F00761BFFF0E20000BDE63006002942561617
:2003280076256F00761BFFF0E20000BDE63006002942561676256F00761BFFF0E20000BD70
:20033800E63006002942561676256F00761BFFF0E20000BDE63006002942561676256F008C
:20034800761BFFF0E20000BDE63006002942561676256F00761BFFF0E20000BDE63006003E
:200358002942561676256F00761BFFF0E20000BDE63006002942561676256F00761BFFF008
:20036800E20000BDE63006002942561676256F00761BFFF0E20000BDE630060029425616C7
:2003780076256F00761BFFF0E20000BDE63006002942561676256F00761BFFF0E20000BD20
:20038800E63006002942561676256F00761BFFF0E20000BDE63006002942561676256F003C
:20039800761BFFF0E20000BDE63006002942561676256F00761BFFF0E20000BDE6300600EE
:2003A8002942561676256F00761BFFF0E20000BDE63006002942561676256F00761BFFF0B8
:2003B800E20000BDE63006002942561676256F00761BFFF0E20000BDE63006002942561677
:2003C80076256F00761BFFF0E20000BDE63006002942561676256F00761BFFF0E20000BDD0
:2003D800E63006002942561676256F00761BFFF0E20000BDE63006002942561676256F00EC
:2003E800761BFFF0E20000BDE63006002942561676256F00761BFFF0E20000BDE63006009E
:2003F8002942561676256F00761BFFF0E20000BDE63006002942561676256F00761BFFF068
:20040800E20000BDE63006002942561676256F00761BFFF0E20000BDE63006002942561626
:2004180076256F00761BFFF0E20000BDE63006002942561676256F00761BFFF0E20000BD7F
:20042800E63006002942561676256F00761BFFF0E20000BDE63006002942561676256F009B
:20043800761BFFF0E20000BDE63006002942561676256F00761BFFF0E20000BDE63006004D
:200448002942561676256F00761BFFF0E20000BDE63006002942561676256F00761BFFF017
:20045800E20000BDE63006002942561676256F00761BFFF0E20000BDE630060029425616D6
:2004680076256F00761BFFF0E20000BDE63006002942561676256F00761BFFF0E20000BD2F
:20047800E63006002942561676256F00761BFFF0E20000BDE63006002942561676256F004B
:20048800761BFFF0E20000BDE63006002942561676256F00761BFFF0E20000BDE6300600FD
:200498002942561676256F00761BFFF0E20000BDE63006002942561676256F00761BFFF0C7
:2004A800E20000BDE63006002942561676256F00761BFFF0E20000BDE63006002942561686
:2004B80076256F00761BFFF0E20000BDE63006002942561676256F00761BFFF0E20000BDDF
:2004C800E63006002942561676256F00761BFFF0E20000BDE63006002942561676256F00FB
:2004D800761BFFF0E20000BDE63006002942561676256F00761BFFF0E20000BDE6300600AD
:2004E8002942561676256F00761BFFF0E20000BDE63006002942561676256F00761BFFF077
:2004F800E20000BDE63006002942561676256F00761BFFF0E20000BDE63006002942561636
:2005080076256F00761BFFF0E20000BDE63006002942561676256F00761BFFF0E20000BD8E
:20051800E63006002942561676256F00761BFFF0E20000BDE63006002942561676256F00AA
:20052800761BFFF0E20000BDE63006002942561676256F00761BFFF0E20000BDE63006005C
:200538002942561676256F00761BFFF0E20000BDE63006002942561676256F00761BFFF026
:20054800E20000BDE63006002942561676256F00761BFFF0E20000BDE630060029425616E5
:2005580076256F00761BFFF0E20000BDE63006002942561676256F00761BFFF0E20000BD3E
:20056800E63006002942561676256F00761BFFF0E20000BDE63006002942561676256F005A
:20057800761BFFF0E20000BDE63006002942561676256F00761BFFF0E20000BDE63006000C
:200588002942561676256F00761BFFF0E20000BDE63006002942561676256F00761BFFF0D6
:20059800E20000BDE63006002942561676256F00761BFFF0E20000BDE63006002942561695
:2005A80076256F00761BFFF0E20000BDE63006002942561676256F00761BFFF0E20000BDEE
:2005B800E63006002942561676256F00761BFFF0E20000BDE63006002942561676256F000A
:2005C800761BFFF0E20000BDE63006002942561676256F00761BFFF0E20000BDE6300600BC
:2005D8002942561676256F00761BFFF0E20000BDE63006002942561676256F00761BFFF086
:2005E800E20000BDE63006002942561676256F00761BFFF0E20000BDE63006002942561645
:2005F80076256F00761BFFF0E20000BDE63006002942561676256F00761BFFF0E20000BD9E
:20060800E63006002942561676256F00761BFFF0E20000BDE63006002942561676256F00B9
:20061800761BFFF0E20000BDE63006002942561676256F00761BFFF0E20000BDE63006006B
:200628002942561676256F00761BFFF0E20000BDE63006002942561676256F00761BFFF035
:20063800E20000BDE63006002942561676256F00761BFFF0E20000BDE630060029425616F4
:2006480076256F00761BFFF0E20000BDE63006002942561676256F00761BFFF0E20000BD4D
:20065800E63006002942561676256F00761BFFF0E20000BDE63006002942561676256F0069
:20066800761BFFF0E20000BDE63006002942561676256F00761BFFF0E20000BDE63006001B
:200678002942561676256F00761BFFF0E20000BDE63006002942561676256F00761BFFF0E5
:20068800E20000BDE63006002942561676256F00761BFFF0E20000BDE630060029425616A4
:2006980076256F00761BFFF0E20000BDE63006002942561676256F00761BFFF0E20000BDFD
:2006A800E63006002942561676256F00761BFFF0E20000BDE63006002942561676256F0019
:2006B800761BFFF0E20000BDE63006002942561676256F00761BFFF0E20000BDE6300600CB
:2006C8002942561676256F00761BFFF0E20000BDE63006002942561676256F00761BFFF095
:2006D800E20000BDE63006002942561676256F00761BFFF0E20000BDE63006002942561654
:2006E80076256F00761BFFF0E20000BDE63006002942561676256F00761BFFF0E20000BDAD
:2006F800E63006002942561676256F00761BFFF0E20000BDE63006002942561676256F00C9
:20070800761BFFF0E20000BDE63006002942561676256F00761BFFF0E20000BDE63006007A
:200718002942561676256F00761BFFF0E20000BDE63006002942561676256F00761BFFF044
:20072800E20000BDE63006002942561676256F00761BFFF0E20000BDE63006002942561603
:2007380076256F00761BFFF0E20000BDE63006002942561676256F00761BFFF0E20000BD5C
:20074800E63006002942561676256F00761BFFF0E20000BDE63006002942561676256F0078
:20075800761BFFF0E20000BDE63006002942561676256F00761BFFF0E20000BDE63006002A
:200768002942561676256F00761BFFF0E20000BDE63006002942561676256F00761BFFF0F4
:20077800E20000BDE63006002942561676256F00761BFFF0E20000BDE630060029425616B3
:2007880076256F00761BFFF0E20000BDE63006002942561676256F00761BFFF0E20000BD0C
:20079800E63006002942561676256F00761BFFF0E20000BDE63006002942561676256F0028
:2007A800761BFFF0E20000BDE63006002942561676256F00761BFFF0E20000BDE6300600DA
:2007B8002942561676256F00761BFFF0E20000BDE63006002942561676256F00761BFFF0A4
:2007C800E20000BDE63006002942561676256F00761BFFF0E20000BDE63006002942561663
:2007D80076256F00761BFFF0E20000BDE63006002942561676256F00761BFFF0E20000BDBC
:2007E800E63006002942561676256F00761BFFF0E20000BDE63006002942561676256F00D8
:2007F800761BFFF0E20000BDE63006002942561676256F00761BFFF0E20000BDE63006008A
:200808002942561676256F00761BFFF0E20000BDE63006002942561676256F00761BFFF053
:20081800E20000BDE63006002942561676256F00761BFFF0E20000BDE63006002942561612
:2008280076256F00761BFFF0E20000BDE63006002942561676256F00761BFFF0E20000BD6B
:20083800E63006002942561676256F00761BFFF0E20000BDE63006002942561676256F0087
:20084800761BFFF0E20000BDE63006002942561676256F00761BFFF0E20000BDE630060039
:200858002942561676256F00761BFFF0E20000BDE63006002942561676256F00761BFFF003
:20086800E20000BDE63006002942561676256F00761BFFF0E20000BDE630060029425616C2
:2008780076256F00761BFFF0E20000BDE63006002942561676256F00761BFFF0E20000BD1B
:20088800E63006002942561676256F00761BFFF0E20000BDE63006002942561676256F0037
:20089800761BFFF0E20000BDE63006002942561676256F00761BFFF0E20000BDE6300600E9
:2008A8002942561676256F00761BFFF0E20000BDE63006002942561676256F00761BFFF0B3
:2008B800E20000BDE63006002942561676256F00761BFFF0E20000BDE63006002942561672
:2008C80076256F00761BFFF0E20000BDE63006002942561676256F00761BFFF0E20000BDCB
:2008D800E63006002942561676256F00761BFFF0E20000BDE63006002942561676256F00E7
:2008E800761BFFF0E20000BDE63006002942561676256F00761BFFF0E20000BDE630060099
:2008F8002942561676256F00761BFFF0E20000BDE63006002942561676256F00761BFFF063
:20090800E20000BDE63006002942561676256F00761BFFF0E20000BDE63006002942561621
:2009180076256F00761BFFF0E20000BDE63006002942561676256F00761BFFF0E20000BD7A
:20092800E63006002942561676256F00761BFFF0E20000BDE63006002942561676256F0096
:20093800761BFFF0E20000BDE63006002942561676256F00761BFFF0E20000BDE630060048
:200948002942561676256F00761BFFF0E20000BDE63006002942561676256F00761BFFF012
:20095800E20000BDE63006002942561676256F00761BFFF0E20000BDE630060029425616D1
:2009680076256F00761BFFF0E20000BDE63006002942561676256F00761BFFF0E20000BD2A
:20097800E63006002942561676256F00761BFFF0E20000BDE63006002942561676256F0046
:20098800761BFFF0E20000BDE63006002942561676256F00761BFFF0E20000BDE6300600F8
:200998002942561676256F00761BFFF0E20000BDE63006002942561676256F00761BFFF0C2
:2009A800E20000BDE63006002942561676256F00761BFFF0E20000BDE63006002942561681
:2009B80076256F00761BFFF0E20000BDE63006002942561676256F00761BFFF0E20000BDDA
:2009C800E63006002942561676256F00761BFFF0E20000BDE63006002942561676256F00F6
:2009D800761BFFF0E20000BDE63006002942561676256F00761BFFF0E20000BDE6300600A8
:2009E8002942561676256F00761BFFF0E20000BDE63006002942561676256F00761BFFF072
:2009F800E20000BDE63006002942561676256F00761BFFF0E20000BDE63006002942561631
:200A080076256F00761BFFF0E20000BDE63006002942561676256F00761BFFF0E20000BD89
:200A1800E63006002942561676256F00761BFFF0E20000BDE63006002942561676256F00A5
:200A2800761BFFF0E20000BDE63006002942561676256F00761BFFF0E20000BDE630060057
:200A38002942561676256F00761BFFF0E20000BDE63006002942561676256F00761BFFF021
:200A4800E20000BDE63006002942561676256F00761BFFF0E20000BDE630060029425616E0
:200A580076256F00761BFFF0E20000BDE63006002942561676256F00761BFFF0E20000BD39
:200A6800E63006002942561676256F00761BFFF0E20000BDE630060029425616E28000BE3F
:200A7800FFF176177602761BFFF0E20000BDE63006002942561676256F00FE047C431E422C
:200A880076228A42CCCCFFF0CA4396CC761AFE840006FE067D467C451E422901560301452B
:200A9800074209101E4476222BAA28AC001427468A4CA9A98344563BDC81FF5A56030F49D1
:200AA800CAABCBAAA8ABCAABCBAA1EC5761AFE860006FE067D447C431E42560301439645AE
:200AB80076222D450203563BFF551EA6020A07428AA92BAA274406A6CEC4CFCC1EA6A9A9AF
:200AC800563BFF5A06A6CAABCBAA1EA6020A07428AA9C2C4761AFE860006FE047C431E4281
:200AD80076228A42CCC4FFFBCA4396C4761AFE840006FE021E4276228A421AC48000761ADF
:200AE800FE820006FE021E4276228A421AC40080761AFE820006FE047C431E428843020D35
:200AF80007428AA97EC4FE840006FE047C431E429B012D438A429A00BE00FF67CFDC5300E3
:200B080061029A0152006102BE0192A6FE840006FE047C431E428A429A012D43FF6696E4C4
:200B1800FE840006FE021E427622020207428AA918C47FFF761AFE820006FE047C431E422C
:200B28007622020907428AA9CCC4FFE0CA4388A9020907428AA97EC4761AFE840006FE06FC
:200B38007C451E4229010E45FF40074209071E4492459001FF82964676228A442D469A20AD
:200B4800FF6698C4761AFE860006FE087D467C451E4229010E45FF40074209071E4492457A
:200B58009001FF82964776222D479A1F8A449346FF66FF5EFF67CEC4CBA997C4761AFE8883
:200B68000006FE067C451E4229010E45FF40074209071E4492459001FF82964676228A44A0
:200B78002D469A40FF6698C4761AFE860006FE061E422901FF44FF31FF30FF18007F1E440D
:200B880002011EA69242901F2DA906A6563B1E46064A60058A4406461EE46F048A4406462E
:200B98001ED4FE860006FE047C431E4228AC00228F0E02603043560100A48AC406421EE4A5
:200BA800FE840006FE047C431E4228AC00228F0E02603043560100A48AC406421EF4FE84F7
:200BB8000006FE047C431E4228AC00228F0E02603043560100A48AC406421EC4FE84000693
:200BC800FE047C431E4228AC002230438F0E0260560100A48AC40642CED4CFDCFF5861F6F8
:200BD800FE840006FE047C431E4228AC002230438F4E0260560100A5020807C58AA906425F
:200BE800CEC4CFCCFF5860F4FE840006FE047C431E42764E0B9B5C430642764E0BC85C43E5
:200BF8000642764E0BB95C430642764E0BDAFE840006FE04E2030044761F040492016178C1
:200C0800E2AF0010E8120F80AD14626A761F0400E8021640E2AF0112E2740008770077004C
:200C18007700761F0404E203001AE2AF0110E2AF0044E7000008E2AF011CE7100040764E9A
:200C28002109761F0404E2AF0244E2AF011AE6AF0009E70000517700E70000517700E7007F
:200C380000407700E2030014E2AF0044E2AF0110E7000008E2AF011CE7100040764E20FEBF
:200C4800761F0404E2AF0244E2AF011AE70000517700E70000407700E2030016E2AF00444F
:200C5800E2AF0110E7000008E2AF011CE7100040764E2109761F0404E2AF011AE7000040A8
:200C68007700E2030018E801C688E2AF0110E80DB8B8E71000407700E20300106F09E5902A
:200C7800E20300142B01E2030016E2030018FE840006FE04E2030044E5A0AD146003E5906E
:200C88006F14E8120F80AD146506E801F4C8E80CCCD06F0BE8160F80AD146306E805F4C805
:200C9800E80CCCD06F02E590FE840006FE12E2030146E2030044A8425CADE8060648E2AF19
:200CA8000144E80872B0DC92E700000988A4E2AF0046E2740008764E20885CAD5DADC45281
:200CB8000650DC8EDD8AC24E5CA488A51E4C764E11E45CADDC8A5CA4764E1FE6E8CFE000C6
:200CC8008A42E20300C48A42E590E20300D4FE920006FE06E2030044A8428342C442E2AF94
:200CD8000144E2AF00C4E2AF02C5E8CFE012E30043D6E70000997700E71000407700E203DB
:200CE800004606461ED4E2AF0046FE860006FE02764E1130764E116DE80230E1E802224079
:200CF8008F01008CE80A0001764E0C9EE80230E1E80209008F010090E80A0001764E0C9EF0
:200D0800E80230E1E8021E408F010094E80A0001764E0C9E764E10E88F03B088F6092B84CF
:200D1800761F040492029E04520A68FB9202960492030A035264670702001E420248764EC5
:200D28000B7F6FEF920352C8670702011E420248764E0B7F6FE62B036FE4FE06E2030044A8
:200D3800E590E2030046761F0404E2AF0138E801D120761F0405E80DADF0E7000009E2AF09
:200D48000036E71000407700E2030036E8020648E2AF0136E8087ED8E6940001AD14651491
:200D5800E8020648E8087ED8E72000087700E2030036E2AF0136E8020648E8087ED8E6949C
:200D68000001AD1462EE761F04049207610F761F0405E2AF0036764E2109E2AF0144E700A3
:200D780000087700E20300466F13761F0405E2AF0036764E2109E5A0AD146504E2AF004458
:200D88006F05E2AF0044E6AF0000E2030046FE860006FE04E2030044E5A0AD1465039A0144
:200D98006F08E5A0AD14630428A9FFFF6F029A00FE840006FE16E203034AE2030248E2035B
:200DA8000146E2030044E2AF0048E2AF014AE70000087700E203004CE2AF014CE2AF004AB6
:200DB800E70000087700E203004EE2AF0146E2AF004AE7000009E2AF0044E710004077005C
:200DC800E2030050E2AF0348E2AF024CE2AF014CE850401BE6950000E7000051E70000C050
:200DD8007700E7100040764E2114E2030052E2AF0150E2AF004EE6940001AD146216E6AF13
:200DE8000000E6940001AD146410E2AF004AE2740009770077007700E2AF0346E71000C803
:200DF8007700E20300546F20E2AF0050764E0D913B01E2AF015285A9E2AF004CE72000081F
:200E0800BDA90F16770077007700E84FC000E68900097700E7000009E2AF0346E71000C86B
:200E18007700E2030054E2AF004CE2AF0154E6940001AD146219E6AF0000E6940001AD14BF
:200E28006413E2AF0048E6AF0000E70000097700E2AF034CE27400C8770077007700770084
:200E3800E20300566F17E2AF0054764E0D913B0185A9BDA90F16770077007700E2AF00485F
:200E4800E6890009E6AF0000E70000087700E2030056FE960006FE02E2030042761F04047E
:200E5800E2AF013AE320413C761F0405E2AF0200761F0404E2AF033E764E0DA2761F040280
:200E6800E2030000761F0404E801C688E2AF013CE80DB8B8E7000009E2AF003AE71000408C
:200E7800761F0402E2030002E801C688E2AF0100E80DB8B8761F0404E7000009E2AF003C50
:200E8800E7100040761F0402E20300040602761F04041E3A761F04020604761F04041E3CF6
:200E9800761F040206021E0606041E081E0AFE820006FE0AE2030042A046A8448A4E06C4F2
:200EA8001E48834E8A46E2AF00C5E8500000E2AF0142E7200009E2AF00C4E72000087700D6
:200EB800E203004AE801C688E2AF0148E80DB8B8E7000009E2AF00C4E71000407700E2039D
:200EC80000C4E2AF014A8A4EE801C688E80DB8B8E7000009E2AF00C4E71000407700E2031E
:200ED80000C48A46834406C41EC5FE8A0006E20304BDFE0AE2030144E2030042761F0405C7
:200EE800E2AF0202E8022860E7200051E80D0000E7000008E2AF0104E72000087700E203A6
:200EF8000046E2AF0302E80222F9E8024E68E2AF0244E80F0B79E720009AE80FF300E30099
:200F08008408E3030B06E72000187700E71000407700E2030048E8066E48E2AF0202E2AF0B
:200F18000144E7200051E8095350E70000087700E203004AE801C688E2AF0146E80DB8B87F
:200F2800E7000009E2AF0002E71000407700E2030002E801C688E2AF0148E80DB8B8E70034
:200F38000009E2AF0004E71000407700E2030004E801C688E2AF014AE80DB8B8E7000009FC
:200F4800E2AF0006E71000407700E2030006FE8AE2AF04BE0006FE0AE2030246E203014419
:200F5800E2030042E2AF0044E2AF0142E72000087700E203004AE2AF024AE8023578E2AFEF
:200F68000146E80E4000E850E589E70000107700E72000407700E2030048FE8A0006FE0E53
:200F7800E203034AE2030248E2030146E2030044764E0F53E203004CE2AF014AE2AF024C91
:200F8800E6AF0009E7100089E80222F8E80F0B78E27400087700770077007700E203004E40
:200F9800E8120B80AD146505E8020B80E203004EE8160B80AD146305E8060B80E203004E83
:200FA800FE8E0006761F0403E2AF00080006E20304BDE20305BDE20306BDE20307BD761F29
:200FB8000405E801BF00E2AF0116E2AF021CE2AF0314E2AF0518E80E8480E3028C12E30A51
:200FC800061EE327171CE72001BBE7200051E700001A7700E7100089E801BF00E80E8480F3
:200FD800E27400087700770077007700E203000EE2AF011CE2AF001EE7200009E2AF001AB4
:200FE800E70000087700E2030010E801C688E2AF0110E80DB8B8E7000041E2AF0014E7108C
:200FF80000407700E2030014E801C688E2AF010EE80DB8B8E7000041E2AF001EE7100040DF
:201008007700E203001EE2AF07BEE2AF06BEE2AF05BEE2AF04BE0006761F040456BF01083B
:201018000006FE04A844020807448AA9E8020000E2AF01C4E2740008770077008A44E2AF51
:2010280001F4E6940001AD14630F8344020A07448AA9E2AF00E5E2AF01C4E710004077003A
:20103800E20300E56F5D8344020807448AA9E2AF01F5E2AF00C4E6940001AD14630E020A1E
:2010480007448AA9E2AF01E5E2AF00C4E72000087700E20300E56F44020807448AA9E2AF22
:2010580000C4E85010017700E8020003E27400C8770077008A44E2AF01F4E6940001AD146B
:20106800630E020A07448AA9E2AF01E5E2AF00C4E72000087700E20300E56F22020807446B
:201078008AA9E2AF00C4E8500000E2AF01F5E6940001AD14630E020A07448AA9E2AF00E564
:20108800E2AF01C4E71000407700E20300E56F088A44E590E20300E48A44E20300F48A4482
:20109800E801C688E80DB8B8E2AF01F4E71000407700E20300F48A44E2AF00E4FE840006C4
:2010A800FE04A8448344020807448AA9E2AF01F5E2AF00C4E6940001AD1463098A44E801B0
:2010B800F568E80C8B40E20300E46F1A020807448AA9E2AF00C4E8500000E2AF01F5E69494
:2010C8000001AD1463068A44E590E20300E46F088A44E590E20300E48A44E20300F48A44D9
:2010D800E801C688E80DB8B8E2AF01F4E71000407700E20300F48A44E2AF00E4FE84000684
:2010E80076083B3092BE8F010060E8021A40E80223D1764E1E43761F00301804FFEFE801C0
:2010F800FC00E8027C018F010068764E1E43761F04018A28020019011ED4761F0030180C15
:20110800FFEF7622761F00358F014000A80C761A761F00331A220040762300017622761F58
:2011180000388F01404FA80A761A761F00331A22200076230001D4019A0028A84000764E1D
:201128000BEE291029207608293092BEFF690006FE02764E193128A9067228A800008F4E93
:2011380021408F014000764E206B8F05FB008F45F800A842A0A9D404764146167622761F71
:20114800174C1A1000081A1000101A100020761A3B1076260000762F0000FF69764E1F986F
:20115800764E1FC0764E1E027622761F174C1A2A0002761AD401FF2F4000764E0BC8D401DB
:201168000208764E0BAAFE820006FE04FF207500D40E764E0A85D580D400FF207500764E12
:2011780017008F407500D404A0A9764E0AD5FF207500764E0AEAFF204E1E7641466EFF20D7
:201188007500764E0AE1764E0B1AD400FF207500764E0B2502C82B41D400D5001E44FF207E
:201198007500764E0A91D400D500FF207500764E0AB102C82B41D4011E44FF207500764EE2
:2011A8000A91D401D500FF207500764E0AB156BF024102C8D4021E44FF207500764E0A9182
:2011B800D402D500FF207500764E0AB156BF024102C8D4031E44FF207500764E0A91D40334
:2011C800D500FF207500764E0AB1D400FF207500D503764E0B4D8F407500D400A0A9764E9E
:2011D8000B10D400A0A9764E0B69D400FF207500764E0B37FE840006B2BDAABDA2BD5AAD55
:2011E800DA88FE4AD00AC292C4D406C428AC00201E4AC248A34A0648565B28AC001FA9A916
:2011F800562218AA7FFF82A9FF2000001E521E50C550C45228A92E42D00828A84086C25605
:20120800BE000FABA9A1C354C292664B9A0028A87FF00FA16625064A18AA000FCAABCBAAC9
:20121800FF58610D5CAD5DADDCA688A45CADDD8A5DA5DC8A5CA4764E1C586F0EA2A96105F2
:20122800FF2000001E6A6F04C44A0648C26A1E68C46AC2661E64C466A364FFEF021E5CAD5E
:201238008F4E022CDC8A5CA4764E1F455200650DFF2000002BAB28AA7FF01EA6761F0406A0
:2012480056BF2222FFEF02095CAD8F4E0230DC8A5CA4764E1F45520063043100A9A66FEFF7
:2012580028A92E4228A83FD60FA16828FF2F7C600FA1FFE9009A5CADDCA688A45CAD8F4E37
:201268000234DC8A5CA4764E1C585CAD8F4E0238DCA65CA4764E1F455200FFE500865CAD03
:20127800DCA688A45CAD8F4E0238DC8A5CA4764E1C58C466A364FFEF01D028A9A2B228A805
:201288003FF00FA166475CADDCAA88A45CAD8F4E023CDC8A5CA4764E1D7F5CAD88ADA2A98C
:201298008F4E0008DCAADEA6FF315CA488A6560100A5764E1C585CADDCA65CA4764E202B1B
:2012A8005CAD3B01D00885A9DC861E9288A4764E20A45CAD5DADDCA6DD8688A45DA58F0E52
:2012B8000010764E1D7F5CADDCA65DA45CADDC9288A45CADDC8A5CA4764E20D75CAD5DAD3A
:2012C800DC96DD8688A45DA58F0E0018764E1D7F6F1F5CADA2A9DC92FF3188A45CAD8F4E5C
:2012D80000108BA9560100A5DC8A5CA4764E20D78F0E0018FF68B2A9560100A4A2ABD008FE
:2012E8000201C4C4C5D411AC1E92C256C3545CAD5DADDC8A88A45CADDD96FF695DA5DC922D
:2012F8005CA4764E20D75CAD5DADDC9E88A45CADDD8A5DA5DC8A5CA4764E1D7FD008C492FC
:201308003B01FF20FC030FA66209D00828AC00140692563BFF1F7FE06F0C2BAB28AA7E70D4
:20131800D00828AC0014A9A70692A3A6563B07A75CAD568FDCC688A45CAD28AC00208F4EEF
:201328000240568FDC9E5CA45652A9621E60764E1D7F5CAD88AD8F4E0244DCC6DEC25CA4D0
:2013380088A6764E1C585DAD5CADDDBE88A55DADDCC25CA4DD9E5DA5764E1D7F5CAD88AD91
:201348008F4E0248DCBEDEBA5CA488A6764E1C585DAD5CADDDB688A55DADDCBA5CA4DD9ED8
:201358005DA5764E1D7F5CAD88AD8F4E024CDCB6DEB25CA488A6764E1C585DAD5CADDDAE84
:2013680088A55DADDCB25CA4DD9E5DA5764E1D7F5CAD88AD8F4E0250DCAEDEAA5CA488A616
:20137800764E1C585DAD5CADDDA688A55DADDCAA5CA4DD9E5DA5764E1D7F5CADDCA65DA461
:201388005CADDC9A88A45CADDC8A5CA4764E20D7D0080692FFE100895CAD5DADDCB288A4CA
:201398005CADDD9A5DA5DC8A5CA4764E1D7F5CAD5DADDCB259A45CADDD9A5DA5DCB688A40F
:2013A8008F0E0254764E20D75CADDCB65DA45CADDCAE88A48AA1764E1CF45CADDCAE5DA489
:2013B8005CADDCAA88A45CADDC965CA4764E20D75DAD5CADDDA688A55DADDCAA5CA4DD9262
:2013C8005DA5764E20D75CAD88ADDCA6DE8E5DA488A68F0E0238764E20D7D008C4923B01F1
:2013D800FF20FC030FA66228FF2004000FA660145CAD5DADDCAE88A45CADDD8E5DA5DC8EA3
:2013E8005CA4764E1C5888AD5CAD8F4E0258DEAADCAE88A66F095CAD5DADDCAA88A45CADB2
:2013F800DDA25DA5DC8E5CA4764E1D7FC46A0668C2661E646F165CAD5DADDCB288A45CADE9
:20140800DDA25DA5DC8E5CA4764E1D7F5CAD88AD8F4E025CDCB2DEA65CA488A6764E1D7F60
:20141800C466A3646F395CAD5DADDCB288A45CADDD8A5DA5DC9A5CA4764E1D7F5CADDCB22F
:2014280059A45CADDCB688A45CAD8F4E0254DC9A5CA4764E20D75CADDCB65DA45CADDCAE44
:2014380088A48AA1764E1CF45DAD5CADDDAA88A55DADDCAE5CA4DD8A5DA5764E20D75CADE1
:2014480088ADDCAADEA65DA488A68F0E0238764E20D7C466A364D00A06926105D00A8A9285
:20145800C2C4A9D4FECA82BE86BE8BBE0006FE06A8441E420EA8FF30FF18000D1E46762281
:201468008A4606441EC4761AFE860006FE041E420EA8FF30FF18000D1E44762283448F0E85
:201478001F1BA8C5761AFE840006FE047C431E4228AC00228F0E02603043560100A48AC4C3
:2014880006421EE4FE840006FE067D447C431E4228AC00228F4E02603043560100A50208E0
:2014980007C58AA90642CEC4CFCCFF58604756BF01459244612230438F0E0262560100A49F
:2014A8008AC4064A1EC430438F0E0262560100A48AC4064E1EE430438F0E0278560100A40C
:2014B8003243064C03C41EA68F0E0262A9A9560100A48AC4C2D46F1930438F0E026256013D
:2014C80000A48AC4064A1EC430438F0E0262560100A48AC4064E1EE430438F0E0262560102
:2014D80000A48AC4064C1ED430438F0E0260560100A48AC406421EE46F022B459245FE867D
:2014E8000006FE0AA046A8441E4228AC00228F0E0260304D560100A48AC40642CED4CFDC54
:2014F800FF58613656BF0149304D8F0E0264560100A48AC4834406C41EC5304D8F0E0264CA
:20150800560100A48AC406D41E48304D8F0E0264560100A48AC4835006E41EC5924E61147C
:20151800304D8F0E027A8F4E027C560100A4304D560100A5290187C5834656440048FF40EE
:2015280007C41EC56F068A4606481EC46F022B499249FE8A0006FE087D47A8441E4228AC48
:2015380000228F4E02683047560100A50642FF3007A58AA906C41E468A44764E145F0646E2
:20154800764E1AADFE880006FE067C451E4228AC00228F4E02683045560100A50642FF3022
:2015580007A58AA906C41E44764E1AE40644764E146EFE860006FE0A7D491E44A84228AC9E
:2015680000228F0E027E3049560100A406C41E4630498F0E0280560100A406C41E488A42F3
:20157800064EFF3407461EC48A42064E074609801EE40644074609841EA6020C07428AA933
:20158800C2C48A4202012D4E563B1ED40644FF3407481EA6020807428AA9C2C406440748BB
:2015980009801EA6020A07428AA9C2C48A42064E074809841EF48A428AE42BC4020C07424A
:2015A8008AA98AC42BC4FE8A0006FE0A97469645A044A84256BF0149C5E492C79647C5F4A0
:2015B80092C796486F08924D60032B496F0DC5F492C796480E481EA692479C01900380A9F7
:2015C80006A60FA761F1924961272901C5445603034707C48AA9F6072484924661118A425D
:2015D8005603034728AC002207C4090283A98F0E02783045560100A406C4564100C59247D2
:2015E8009C01900396478A42C5E496C78A4206D45C45764E147D9249FE8A0006FE0A97461A
:2015F8009645A044A84256BF0149020A07428AA9C5C492C79647020C07428AA9C5C492C718
:20160800964888470E480FA6600F924D60032B496F0B020A07428AA9C5C492C79647884755
:201618000E480FA661F39249612C0208074283A929018A445603034807C51EA7F60724849A
:201628009246611528AC00228F0E027A30458F4E027C560100A43045560100A5C44487C5B5
:201638008344564400D6FF4007C41ED592489C0190039648020C07428AA9C5C4924896C72C
:201648009249FE8A0006FE067D467C451E42290156030145074209101E4476222BAA28AC63
:20165800001427468A4CA9A98344563BDC81FF5A56030F49CAABCBAAA8ABCAABCBAA1EC500
:20166800761AFE860006FE047C431E4276228A42CCCCFEFFCA4396CC761AFE840006FE06A3
:201678007C451E4229015603034509461E44762207428AA906C451081EC4761AFE86000682
:20168800FE087D487C471E466F62924D600A56BF1341064C1E44A8A95D485C47764E164B5B
:20169800924D5201606456BF1441064C1E445C475D48FF207400764E164B6F59924D601304
:2016A80076229A0628A8A5A58F05D74A1EC4761A56BF1141064C1E44FF2075005D485C47B2
:2016B800764E164B924D52016042762228A9020628A8A5A58F05D74A1EC428A98000F4A909
:2016C800591F761A56BF0E41064C1E44FF2075005D485C47764E164B6F2A924D600A56BFEA
:2016D8001341064C1E44A8A95D485C47764E164B924D5201601C56BF1241064C1E445C47BF
:2016E8005D48FF207400764E164B6F11C4468F007400A8A90FA6619AFF2075000FA661AF9E
:2016F8008F007600A8A90FA661D96F01FE880006FE047D447C431E4276228A42CCCCFF3F75
:20170800CA43CA4496CC761A0642764E17140642764E176FFE840006FE061E428A4292CCD5
:201718009040964628A95A5A8F07206254C4604E6F118F072070A8446F1B8F07207CA84468
:201728006F178F072088A8446F138F072070A8446F0FC442FF2074000FA661ECFF207500B0
:201738000FA661ECFF2076000FA661EC6FEF76222B4592455206670F5603014583440EA9D0
:2017480007428AA9C485D070A044C2940A459245520668F392466019027007428AA906C460
:2017580090001EC4027207428AA906C490001EC4027607428AA906C490001EC402780742E0
:201768008AA906C490001EC4761AFE860006FE021E428F000100764E166BFE820006FE041B
:201778007D447C431E427622924360068F05D76818C4FFF86F058F05D7681AC400079244F6
:20178800600418C4F8FF6F031AC40700761AFE840006FE087C471E42290156030347094458
:201798001E440642764E167728AC001A304709B01E467622064407428AA9064CA3C491FF0D
:2017A80018AB000018AAFF00CAABCBAA1EA6064407428AA9C2C4064607428AA9064E91FFF7
:2017B800A3C418AB000018AAFF00CAABCBAA1EA6064607428AA9C2C4761AFE880006FE0808
:2017C8007D47A8441E42560304470EA907421E467622028007468AA9834406C418A980FE7F
:2017D80018A8FFE08A44AFC51EA62901560308CCFF5A06A6CAABCBAA1EA625D4FF5A06A644
:2017E800CAABCBAA1EA6028007468AA9C2C4028207468AA98344CCC4FF80CADD88A9028275
:2017F80007468AA97EC4028407468AA98344BE0092C492A6CAE588A9028407468AA97EC4CE
:20180800028607468AA98344BE0092C492A6CAED88A9028607468AA97EC4761AFE88000657
:20181800764E193128A9067228A800008F4E21408F014000764E206B7641464B764E1829DF
:2018280000067622761F174C1A1000041A1000081A1000101A1000201A1020001A110004AD
:201838001A1101001A1400011A1400021A1400041A1400081A1400101A1400201A140040A3
:201848001A1400801A1401001A1402001A1404001A1408001A1410001A1420001A14400011
:201858001A1480001A1500011A1500021A1600011A1600021A1600041A1600081A16001052
:201868001A1600201A1600401A1800011A1800021A1800041A1800081A1800101A18002035
:201878001A1C00011A1C00021A1C00041A1C00081A1E00011A1E00021A1F00011A1F000281
:201888001A2000011A2000021A2000041A2000081A2200011A2200021A2300011A24000151
:201898001A2400101A2400201A2700011A2A00011A2A00021A2A00041A2C00011A2C0002E0
:2018A8001A2C00041A2C00081A2C00101A2C00201A2C00401A2C00801A2C01001A2C0200F1
:2018B8001A2C04001A3100011A3100041A3200011A3200021A3200041A3200081A32001090
:2018C8001A3200201A3400011A3400021A3500011A3500021A3500041A3500081A36000159
:2018D8001A3600021A3A00011A3A00021A3A00041A3E0001761F174D1A0200011A0200020E
:2018E8001A0200041A0400011A0600011A0800011A0800021A0800041A0800081A080010B7
:2018F8001A0800201A0800401A0800801A090002761AFF69000676220200761F174C1E10A7
:201908001E121E141E161E181E1C1E1E1E201E221E241E261E2A1E2C1E301E321E341E36A3
:201918001E3A1E3E761F174D1E021E041E061E08761AFF6900067622761F01C0CC25FF009A
:2019280050559625CC25FF0050AA9625761AFF690006FE027622761F01C092299007964185
:20193800924150689629761AFF69FE8200067622761F1748CC08FFFC50029608761AFF6984
:2019480000067622761F17481808FFFC761AFF690006FE022B41FF2007D07641466A6F0597
:201958001A3100011831FFFEFF2001FF761F17480F3068F7FF2007FF0F3060FD0A4192414D
:20196800520468F3FE8200067622761F17481832FFFE1832FFFD761AFF69764E1951762251
:20197800CC08FFFC50019608761A6F0E76221A2E0002761AFF69764E19517622CC08FFFC15
:2019880050019608761A402E6DF2FF6900067622761F17481832FFFE1A320002761AFF696C
:20199800764E19517622CC08FFFC50019608761A402E6C027625FF6900067622761F174DA5
:2019A8001826FFFC761A7621FF6900067622761F174DCC26FFFC50029626761F1748180EAB
:2019B800FFFD180EFFFE761A7621FF6900069A007608293093BE40A86C039B016F029B009A
:2019C800530061029A0100069A0076083B3093BE40A86C039B016F029B00530061029A0184
:2019D8000006FE0296416F31762FFFFE6F72762FFFFD6F6F762FFFFB6F6C762FFFF76F6983
:2019E800762FFFEF6F66762FFFDF6F63762FFFBF6F60762FFF7F6F5D762FFEFF6F5A762FF1
:2019F800FDFF6F57762FFBFF6F54762FF7FF6F51762FEFFF6F4E762FDFFF6F4B762FBFFF60
:201A08006F48762F7FFF6F4552808841621C528061E152086211520861D180A62901FF203B
:201A180080000FA761EF92A6520161BF520261C0520461C16F2E521061C4522061C5524042
:201A280061C66F271BA6080062141BA6080061CE80A6FF2001000FA761C080A6FF20020046
:201A38000FA761BE88A6FF2004000FA661BC6F1180A6FF2010000FA761BC80A6FF20200089
:201A48000FA761BA88A6FF2040000FA661B86F01FE820006764E19CC76260000762F000072
:201A58009A00F4A90CE2F4A90CE4F4A90CE6F4A90CE8F4A90CEAF4A90CECF4A90CEEF4A940
:201A68000CF0F4A90CF2F4A90CF4F4A90CF6F4A90CF8F4A90CE3F4A90CE5F4A90CE7F4A9A3
:201A78000CE9F4A90CEBF4A90CEDF4A90CEFF4A90CF1F4A90CF3F4A90CF5F4A90CF7F4A986
:201A88000CF9F5A90CE05001F4A90CE00006FE02762256BF0341924152E0670D8F0E1F1B8E
:201A98005603014108A90D005DA9A8C50A41924152E068F78F0E1F3BBDA40D248F0E1F313D
:201AA800BDA40D26761AFE820006FE061E4292419646764E19CC964392465220681D0642C8
:201AB800290118A9FF009100FF479CFF96442D449A01FF6696455603014408A90CE25CA94A
:201AC8009B01924290FF9CFF2DA9FF6799C420A9CA4523A96F0C520D680A521066089CFF70
:201AD8002DA99A01FF6620A8CAA823A992436003764E19BFFE860006FE061E4292419646A1
:201AE800764E19CC96439246522068260642290118A9FF009100FF479CFF96442D449A01FA
:201AF800FF6696455603014408A90CE25CA99B01924290FF9CFF2DA9FF67FF5FC1C477001C
:201B08007700770077007700FF699245764E19D9F4450CE16F1A520D6818521066169CFFE5
:201B18002DA99A01FF66FF5E20A8CEA823A97700770077007700770092469CFFFF692DA96C
:201B28009A01FF66764E19D992436003764E19BFFE860006FE02A842E801E118E80EB850BF
:201B3800E20300C48A42E8020900E20300D48A42E8020F80E20300E48A42E801EE60E80E65
:201B48006668E20300F4020807428AA9E590E20300C4020A07428AA9E20300C4020C0742AA
:201B58008AA9E20300C4020E07428AA9E20300C4FE820006E20304BDFE1AE203034CE203FF
:201B6800024AE2030148E2030046A844E72000097700E2AF004AE2740008770077007700A7
:201B78007700E203004E06F41E54E2AF014CE2AF004AE6940001AD146229E2AF024EE84F9F
:201B8800C0127700E304D046E300444CE70000A2E802064BE7100080E8087EDBE70000C059
:201B98007700E2030050E2AF004EE2AF024CE3009146E802064CE7100089E8087EDCE7001C
:201BA80001087700E20300526F72E85000007700E6940001AD146264E2AF004AE7200008EA
:201BB8007700E2030056E2AF0148E2AF0046E7200008E2AF044AE6AF0000E2740100770059
:201BC800770077007700E2030058E2AF024EE2AF034AE84FC012E2AF014AE304D046E700D3
:201BD8000008E70000A2E802064BE7100080E8087EDBE70000C07700E203005AE2AF025819
:201BE800E2AF0356E84FC012E2AF0156E304D048E3004456E70000A2E802064BE71000804B
:201BF800E8087EDBE70000C1E2AF045AE71001087700E2030050E802064BE2AF0058E2AF8C
:201C08000256E7000012E2AF0148E7100089E8087EDBE70000C87700E20300526F08E5907F
:201C1800E2030050E20300529A016F37E2AF0050764E20FE020AE2AF01540744E7000040D8
:201C28008AA9E20300C4E2AF0050764E2109E2AF0154020CE2AF0252E6AF0009E700005142
:201C38000744E70000408AA9E20300C4E2AF0050764E20FEE2AF0252E2AF0352020EE304B9
:201C4800D154E6AF0009E70000510744E70000408AA9E20300C49A00FE9AE2AF04BE0006A8
:201C5800B2BDAABDA2BDFE0206A6FFE100845FDCA3C406D4FF90FFD4974106D456AA1AA8D5
:201C6800800056911BA70000630256588EA9A9A11B410000600456A261726F7D1B4107FFC6
:201C780061745FDDA3C506D5FF90FFD4974206D556AA1AA8800056911BA7000063025658E4
:201C880086A9A9A31B420000600456A2615B6F631B4207FF615A93419F42630AB2AB8BA3AF
:201C9800A9A33AAB8EA2A9A25D427D41FF5D2DA83AA9B2AB1BAC0036630F1BAC0000610813
:201CA800AAA9A2AB562C86A9A9A3B2AB3AA9565700A3564000A2565E565E612A97A7565ED2
:201CB800565E630256585C415635565221A35635565222A893A49FAC9FA397A42AA88DC096
:201CC8000200565700A3D300564000A3630418A87FFF0AA45699910F0AA4651D1BA407FFC7
:201CD800631418A7800099A793A4FF93CBA7A9C61ED6FE8282BE86BE8BBE000606D5A3C5C2
:201CE8006FF706D4A3C46FF45633CDA780001AA87FF06FEE56336FECB2BDAABDA2BDFE02AE
:201CF80006A661795FDD93DCF3A7A3C406D4FF90FFD4974106D456AA1AA8800056998EA944
:201D0800A9A11B41000061721B4107FF6169A3C506D5FF90FFD4974206D556AA1AA880007B
:201D1800569986A9A9A31B420000615A1B4207FF615D93419F4297A402001ED61EC628A571
:201D280000353AA9B2AB2B410FA26003A9A90FA3680BB2A9565500A38BA93AA9565400A223
:201D38008EA92841000106D6A3C656A01ED6A9A994411EC63AA9B2AB56A08EA9A9A1610395
:201D4800000DFFE30AA560020AA508A500092DA506D6A3C65652640356A00BA456908DC018
:201D58000200565700A3D300564000A3630418A87FFF0AA45699910F08A403FF65171BA442
:201D680007FF630E18A7800099A793A4FF93CBA7A9C61ED6FE8282BE86BE8BBE00065633EB
:201D7800CDA780001AA87FF06FF456336FF2B2BDAABDA2BDFE0206A661715FDD93DCF3A7E1
:201D8800A3C406D4FF90FFD4974106D456AA1AA880008EA9A9A11B410000616B1B4107FF99
:201D98006162A3C506D5FF90FFD4974206D556AA1AA8800086A9A9A31B420000615A1B42DD
:201DA80007FF61519341954297A45633A2AC564700A1A9A9560500A0565300ABB2AC56050E
:201DB80000A2565300AB562800A99B00565CB2AC564700A2565300AB3AAC564700A35653E1
:201DC80000AB560500A2565300AB1EC6562800A99B00564700A2565300AB1ED6A3C6630303
:201DD80056900AA48DC00200565700A3D300564000A3630418A87FFF0AA45699910F08A41E
:201DE800FC0165171BA407FF630E18A7800099A793A4FF93CBA7A9C61ED6FE8282BE86BE0B
:201DF8008BBE00065633CDA780001AA87FF06FF456336FF28F000C00761F0401A820020082
:201E0800761F003019011E022B062B071A0400101A0400200200761F04011E228F000C086D
:201E1800A8288F000C10A830761F003019011E0A761F0030020019011E12761F00302B0E41
:201E28002B0F761F00302B162B17761F00301A0C0010761F00301A140010761F00301A0C2F
:201E38000020761F00301A140020761F040102001E2A1E320006FE08E2030146E2030044C2
:201E4800A84206441EE48A4206461EF4E2AF0044E2AF0146E70000087700E6880000770022
:201E5800E20300488A428AC4064819011ED48A428AC42BF48A428AC42BFC8A428AC41AE437
:201E680000108A428AC41AE400208A428AC418E4FBFF8A428AC418E4F7FF8A428AC41AE4DE
:201E780040008A4202001ED4FE880006FE04A8448344761F04018A2806C503C4BDA90F16A0
:201E88007700E801DD18E80EB8500208E68B00090744E70000408AA9E20300C4020A0744BE
:201E98008AA902080744E2AF00C48AA9E2AF01C4E6940001AD146509020807448AA9C4C40A
:201EA800020A07448AA9C2C48344C5E5C4A7FF204E200FA7DE01C2E5670A020A07448AA96A
:201EB800E590E20300C48A4402001EE4FE840006AABD2F842BAB6F18A0A901A719011EA74B
:201EC800BE00DE015AA6928796853AA90FA266FA6F039284968592AAFFC02FA992AB9C01E5
:201ED80027A9521063E740AA6DF59284CDA9000F9D02FFC358A880A9531160043AA90D84C1
:201EE8008EA988A7FF200FFF0FA660D786BE0006B2BD8F0E27FAAABDA8A9A2BD8DCE27F457
:201EF8000FA3611C8F0E28068D4E27FEA8A90FA1611503A13B01FF41190186A98A813B01A9
:201F08009284560301A907A383A9C5C583813E67DA81020019010FA260F2764E213882BEC0
:201F180086BE8BBE0006761BFFF0E20000BDE6300600FE0229425616F5410CE0924190FE81
:201F2800FFC096421B410E0068030842008076256F00761BFFF0E20000BDE63006002942B3
:201F3800561676256F00761BFFF0E20000BDE63006002942561676256F0006D428A700014D
:201F48000FD556B202A756B400A7600806C40FC556B602A756B800A7611906D4FF901BA81D
:201F5800FFE0680C06D5FF901BA8FFE0680706D4FFDE92DDFFCE9EA800060BA73B0185DC0D
:201F680092A7CFDD6302FF5C00069A00000677006F00B2BD761F040659A99218610D28AB2D
:201F7800FFFF28AAFFFF28A9FFFF28A8FFFF0FAB6103767FFFFF761F0406C51E3E67761F11
:201F88000406061C61041EA792A13E67761F0406061A61031EA73E67764E1F6F8BBE0006DD
:201F98003B10761F00331820FFFE2B222B242B262B282B2A2B2C2B2E2B302B322B342B3624
:201FA8002B382B232B252B272B292B2B2B2D2B2F2B312B332B352B372B39FF690006761F87
:201FB80000331A2000012821FFFF2910FF690006FE068F0E0040A8428F000D00A844020652
:201FC80007421E42020607441E4476222B45924552DD670D83448A42A0A9C4840902A84200
:201FD8001E44C2C50A45924552DD68F5761A761F00331A200001FF69FE8600065EDC06D4B5
:201FE800A3C456A0569497A456AF56900980630418A87FFF0AA4569E93A408A8FC806410C5
:201FF80053FF620856A618A68000CBA6BDA90F120006CDA680001AA87F809A006FF802001E
:202008006FF6FE02A842761F04018A28834206C41EC583428A4206D503C4BDA90F16770076
:2020180077007700E801DD18E68B0009E80EB850E70000407700E20300F48A42834206C492
:202028001ED5FE8200065EDCA3C406D4FF90FFD497A506D456AA1AA8800008A5FC016413C9
:202038009A0F9EA565092DA9FF6392A81BA600006302FF5C000628A97FFF93A663FC28A97D
:2020480080006FF99A006FF7FE021E4276228F057000A8A907428AA90646FF55FF5A06C404
:20205800CEABCFAA1EC4A34A8F057000A8A907428AA91648563BFF5A06C4CAABCBAA1EC4F8
:20206800761AFE8200065200A8ABC5A4610788A9DE815C857C87000EFFFE88A90FA6610FF7
:202078005300610D9DFF5CA876BFFFFE92859687000EFFFE92859687000CFFF8A9A40006EC
:2020880006A66112BFA90F1297A53100569691FF611253FF610A08A8038056A318A580000E
:20209800CBA5A9C61ED600065633CDA580001AA87FF06FF856336FF6FF5A06A66117A9A97F
:2020A800611697A58F00041D63066B012902FF546A020AA4F61FFF743100569D93A456A36C
:2020B80018A58000CBA5A9C61ED6000656336FFC28AD0400FF69561F5616561AE610020074
:2020C8002940761F00002902761B764E213652006103764E1EF0764E20F2764E1F71FE046F
:2020D80006D51E4206C51E441C4180005DADDD845DA5764E1C58FE8400068ACC0200190104
:2020E800DC810FA461070200DC812B8519010FA460FB00068F000000A8A960049A00D40071
:2020F8006F0392C4DC02764E0CEF0006FE02E2030042E27100007700E27900007700FE821A
:202108000006FE02E2030042E27100007700E27800007700FE820006FE02E2030042E277E9
:20211800000077007700FE820006761F0406A8200006761F0406A81E00060006C4A583A4C5
:2021280006CD8AA6DD03764E206B0006561F7622B9C028290068761A004E20C09A010006C1
:0221380000069F
:20214000761BFFF00005ABBDA8BDA0BDC2BDC3BDE20000BDE20300BDE20301BDE20302BD49
:20215000E20303BDE6300600FE02FF6929425616761F0033922296411822FFBFF6057700B2
:20216000762FFFFE56BF01217623000129108F0100A4FF69764E2009761F04040A028F01F1
:2021700000A4764E1E7E3B10761F00339241962256BF0121FE82E2AF03BEE2AF02BEE2AFC2
:2021800001BEE2AF00BEE28000BEC5BEC4BE83BE8ABE87BE00033B30FFF176177602761B4A
:20219000FFF00005ABBDA8BDA0BDC2BDC3BDE20000BDE20300BDE20301BDE20302BDE203A5
:2021A00003BDE20304BDE20305BDE20306BDE20307BDE6300600FE30FF69294256162B57B6
:2021B000E590E2030044E2030046FF207500D40F764E0AF38F010098764E2009E8022BD014
:2021C000E2030048E2AF0148E70000087700E84FA0007700E203004AE8021760E203004C83
:2021D000E8022800E203004EE590E2030050E2030052E2030054E801FC00E2030056761FDB
:2021E0000E820608761F04021E30761F0E82060A761F04021E32761F0E82060C761F040266
:2021F0001E34761F0E82060E761F04021E36761F0E820610761F04021E38761F0E820612EC
:20220000761F04021E3A761F0E820614761F04021E3C761F0E820616761F04021E3E761FCA
:202210000E820618761F04031E00761F0E82061A761F04031E02761F0E82061C761F040362
:202220001E04761F0E82061E761F04031E06761F0403E2AF0004E68C00003B01761F0403F8
:20223000BFA90F12C4068F010000560301A9560100A4C2C4761F0E820620761F04031E081A
:20224000761F0E820622761F04031E0A761F0E820624761F04031E0C761F0404E802029837
:20225000E801BC01E2880222E8099998E7000080E80814D1E7000008761F0403E203000E5E
:20226000761F0404E8020298E801BC01E2880224E8099998E7000080E80814D1E7000008BA
:20227000761F0403E2030010761F0402061E761F04031E12761F04020620761F04031E14A3
:20228000761F04020634761F04051E1C761F0402E801E620E80CDD30E2AF0138E700004015
:20229000761F0405E2030012761F04039B00E2AF0008E811FC00AD1465039A016F029A0005
:2022A000520061029B019757761F0E8206181E44761F04040A0592055201FFE903C2E2888D
:2022B00000227700E203005406241E282B0502001E2A1E308F01008C764E0CD1E6880000D9
:2022C0007700E2030026764E0FAF764E0FAA761F0405E2AF010CE6940001AD146130761FDF
:2022D00004040A0B920B5264652AE590761F0405E2030014E2030002E2030004E203000628
:2022E000761F04042B0B764E0FAA761F0405E203000C761F0404E2AF014EE2AF0036E700D4
:2022F0000009E2AF002CE71000407700E203002C761F04020632761F04051E26761F0404F7
:20230000920661062B0606541E2C06281E2EE2880126E2AF002CE72000087700E68800002D
:202310007700E2030026062E56410028E28801267700E2AF004EE27400087700770077008E
:202320007700E20300348F010090764E0CD1E2030036E2AF0034E811F800AD146205E81556
:20233000F800AD1463020A0A761F0402E2AF0034764E0C81761F0405E203002C761F040062
:20234000E8021640E2AF0106E27400087700770077007700E203005A761F0400E80230E099
:20235000E2AF0108E80A0000E27400087700770077007700E203005C761F0400E2AF010239
:20236000E8021640E2740008770077007700761F0405E2030020761F0400E2AF0104E8029E
:2023700023D0E2740008770077007700761F0405E2030022E590E203005EE2030060E2AF64
:202380000026761F0402E2AF0132E7200008761F0405E2030024E8C000007700E2030024DA
:20239000E8020248E2AF0124E8087ED8E6940001AD146514E8020648E8087ED8E7200008BB
:2023A0007700E2030024E2AF0124E8020248E8087ED8E6940001AD1462EEE8060248E808B9
:2023B0007ED8E6940001AD14FFE302AFE8020648E8087ED8E71000407700E2030024E2AF22
:2023C0000124E8060248E8087ED8E6940001AD1464EEFFEF029A764E0FAA761F0404E20343
:2023D0000038E801FC00764E0D35E2030046761F0405E801C688E2AF0132E80DB8B8E700BA
:2023E0000009E2AF002EE71000407700E203002E761F0404E28801267700E7200008761F0B
:2023F0000405E2030030E801C688E2AF0148E80DB8B8E7000008E2AF0130E7000009E2AF07
:20240000002EE71000407700E203002EE801C688E2AF014AE80DB8B8E7000008E2AF0130A4
:20241000E7000009E2AF0032E71000407700E2030032FFEF0256761F0400060C1E56761F3A
:202420000405E2AF0026761F0402E2AF0132E6940001AD1465095CADE7200008DCA488A40F
:20243000764E20886F275CADE2AF0032DCAC88A4764E20885CAD88ADDCACDEA85DA488A623
:202440008F0E0020764E1C585CADDCA859A45CAD761F0405E2AF0026DCB088A4764E20887B
:202450005CADDCB05DA45CADDCA488A48AA1764E20D75CADDCA45CA4764E1FE6764E2109FB
:20246000E8600000761F0405E2030028E2AF0056E8120000AD146062761F0404E2C80100BD
:20247000761F0400E2AF000AE6940001AD146118E590761F0404E2030010761F0400E2AF32
:20248000000AE68C0000761F0404E2130000761F04050624761F04041E1C56BF0101761FE3
:202490000400E8020648E2AF0110E8087ED8E70000087700E2030062764E0C01E2AF0216E1
:2024A000761F0405E2AF054CE2AF0024E8509214761F0404E2AF0714E2AF0118761F040578
:2024B000E840003FE2AF0628E3204B1CE2740175E327185AE300425CE304CE4CE27401BAA1
:2024C000E71000407700E71001407700E71000807700E203002AFFEF00C2E8120200AD1435
:2024D000602C761F0400060E1E60761F0405E2AF0160E2AF001CE7200009E2AF005CE70014
:2024E00000087700E203002A6F01761F04042B0C920D5201FFE000A3761F0405E2AF004C1B
:2024F000E2AF0128E27400087700770077007700E203002AFFEF0093E8120400AD14600F1A
:20250000E2AF004CE2AF0128E27400087700770077007700E203002AFFEF0081E811FC0077
:20251000AD1460088F01018C764E10A8E203002A6F75E8020501E6940001AD14604C761F89
:2025200004038F0100D8E2AF0018E2AF011AE2AF021CE2AF0320764E1B625200605F761F8D
:202530000403E801C688E2AF0120E80DB8B8E71000407700E2030020E2AF0224E2AF054CEA
:20254000761F0405E8509214E2AF0024761F0403E2AF0726E2AF0122761F0405E840003F37
:20255000E2AF0628E3204B1CE2740175E327185AE300425CE304CE4CE27401BAE710004030
:202560007700E71001407700E71000807700E203002A6F24E5A0AD1460218F0100D8764EB2
:202570001B32761F04042B0D2B01761F0400E2AF000AE68C0000761F0404E2130000761F30
:202580000405E2AF004CE2AF0128E27400087700770077007700E203002A761F0404E2AF24
:202590000034761F0405E2AF012AE72000087700E2030050E801C688E2AF0132E80DB8B882
:2025A000E7000009E2AF002EE71000407700E203002EE2AF0150E72000087700E20300302E
:2025B000E2AF0148E801C688E80DB8B8E7000008E2AF0130E7000009E2AF002EE7100040FE
:2025C0007700E203002EE801C688E2AF014AE80DB8B8E7000008E2AF0130E7000009E2AFC7
:2025D0000032E71000407700E203003206321E52E2AF044CE2AF032AE2AF0250E80200C818
:2025E000E3072920E80CCCD0E2AF0322E3028C52E2740028E70000E27700E71000897700EA
:2025F000E7100040E2AF012CE71000407700E2030046E2AF0044E890B200E2AF0146E694AC
:202600000001AD146506E2AF0044E890B2006F11E2AF0044E8B0B2007700E6940001AD143C
:202610006306E2AF0044E8B0B2006F03E2AF0046E2030046E8120D80AD146504E8020D8086
:202620006F07E8160D80AD146303E8060D80E2030046E2AF0134E801F260E2AF0246E720EB
:202630000051E80E6668E7000009E2AF0034E71000407700E20300346F33761F0405062A89
:202640001E00761F04040634761F04051E0AE2AF0000E2AF010A764E0EDFE2AF0000E2AFBF
:202650000102E2AF0204E2AF0306764E0F77E203000806081E466F148F010180764E10190C
:20266000E20300466F0D761F04049209FFE1FD655201FFE1FDB2520261D1520461EE925743
:202670006114761F0405E2AF0144E2AF0034E6940001AD1461050634761F0EC21E08020132
:20268000761F0EC256010010761F0403E2AF0122E850CD09E8020248E8087ED8E274000838
:20269000770077007700761F0EC2E203000A761F0405E2AF0124E850CD09E8020248E808EB
:2026A0007ED8E2740008770077007700761F0EC2E203000C761F04020620761F0EC21E0E59
:2026B000761F040456BF500E8F4075006F07761F0404920E0B0E52006407D400A0A9764E4C
:2026C0000AFD520061F5D400A0A9764E0B10761F002A29010E000D01761F0404FF401E222E
:2026D000761F002A0E020D03761F0404FF401E248F010098764E1E7ED4010202764E0BB904
:2026E000761F003356BF0121FEB0E2AF07BEE2AF06BEE2AF05BEE2AF04BEE2AF03BEE2AFF8
:2026F00002BEE2AF01BEE2AF00BEE28000BEC5BEC4BE83BE8ABE87BE00033B30FFF176178D
:202700007602FE047C431E4276229243610B8A42290156030843A3C418ABF0FFCBAACAABAA
:202710001EC4761AFE840006FE021E427622FF20018007428AA9020198C499CC761AFE82C7
:202720000006FE021E427622FF20018007428AA906C418A9FFFE1EC4761AFE820006FE02FF
:202730001E427622FF20018007428AA9020298C499CC761AFE820006FE021E427622FF2083
:20274000018007428AA906C418A9FFFD1EC4761AFE820006FE021E4276228A4206C418A9AE
:20275000FFF0500A1EC4761AFE820006FE0A7C491E48764145FC0648764145E15C490648DF
:20276000764145C1BE01B6000201C242C3441E46FF201600764E204CBE030203C242C3447F
:202770001E46FF201604764E204C0203C242C3441E46FF201608764E204C0648764145EF62
:202780000648764145D4064E7641460AF6077700FF69FE8A00067622761F17E61800FFFD18
:202790001800FFFE761F17E0CC00F0FF1AA904009600761F17E61A0000021A000001761F12
:2027A00017ECCC00FFF0500A9600761AF6077700FF690006190156C3FFFF0006190156C38F
:0427B000FFFF000621
:2027B8000001F365000000030001002300B453D1427B0134D70A3CA30116007F0009126FD7
:2027C8003A034000469CFAEE025F000644FA6667C1D605B3437A00003F800631408004BFB3
:2027D800000733333F33000041203333DEDDBF33085140A0E18A37EA00B0CCCD3DCC08F27D
:2027E800CCCD3D4C80333AB708E42125000E000200100000FFF0000020E5000E1EC0000ECB
:1C27F8002126000E0000000000E8000027B8000E0100000127FA000E0000000169
:00000001FF
